:020000040000fa
:080000000001040000000000f3
:020000040000fa
:0400080042020000b0
:020000040000fa
:04000c00840200006a
:020000040000fa
:04001000c402000026
:020000040000fa
:040014006202000084
:020000040000fa
:04001800a40200003e
:020000040000fa
:04001c0004030000d9
:020000040000fa
:04002000e4020000f6
:020000040000fa
:0400240004030000d1
:020000040000fa
:0400280004030000cd
:020000040000fa
:04002c0004030000c9
:020000040000fa
:0400300004030000c5
:020000040000fa
:040034000c020000ba
:020000040000fa
:0400380004030000bd
:020000040000fa
:04003c0004030000b9
:020000040000fa
:0400400004030000b5
:020000040000fa
:0400440004030000b1
:020000040000fa
:0400480004030000ad
:020000040000fa
:04004c0004030000a9
:020000040000fa
:0400500004030000a5
:020000040000fa
:0400540004030000a1
:020000040000fa
:04005800040300009d
:020000040000fa
:04005c000403000099
:020000040000fa
:040060000403000095
:020000040000fa
:040064000403000091
:020000040000fa
:04006800040300008d
:020000040000fa
:04006c000403000089
:020000040000fa
:040070000403000085
:020000040000fa
:040074000403000081
:020000040000fa
:04007800040300007d
:020000040000fa
:04007c000403000079
:020000040000fa
:040080000403000075
:020000040000fa
:040084000403000071
:020000040000fa
:04008800040300006d
:020000040000fa
:04008c000403000069
:020000040000fa
:040090000403000065
:020000040000fa
:040094000403000061
:020000040000fa
:04009800040300005d
:020000040000fa
:04009c000403000059
:020000040000fa
:0400a0000403000055
:020000040000fa
:0400a4000403000051
:020000040000fa
:0400a800040300004d
:020000040000fa
:0400ac000403000049
:020000040000fa
:0400b0000403000045
:020000040000fa
:0400b4000403000041
:020000040000fa
:0400b800040300003d
:020000040000fa
:0400bc000403000039
:020000040000fa
:0400c0000403000035
:020000040000fa
:0400c4000403000031
:020000040000fa
:0400c800040300002d
:020000040000fa
:0400cc000403000029
:020000040000fa
:0400d0000403000025
:020000040000fa
:0400d4000403000021
:020000040000fa
:0400d800040300001d
:020000040000fa
:0400dc000403000019
:020000040000fa
:0400e0000403000015
:020000040000fa
:0400e4000403000011
:020000040000fa
:0400e800040300000d
:020000040000fa
:0400ec000403000009
:020000040000fa
:0400f0000403000005
:020000040000fa
:0400f4000403000001
:020000040000fa
:0400f80004030000fd
:020000040000fa
:0400fc0004030000f9
:020000040000fa
:0401000004030000f4
:020000040000fa
:0401040004030000f0
:020000040000fa
:0401080004030000ec
:020000040000fa
:04010c0004030000e8
:020000040000fa
:0401100004030000e4
:020000040000fa
:0401140004030000e0
:020000040000fa
:0401180004030000dc
:020000040000fa
:04011c0004030000d8
:020000040000fa
:0401200004030000d4
:020000040000fa
:0401240004030000d0
:020000040000fa
:0401280004030000cc
:020000040000fa
:04012c0004030000c8
:020000040000fa
:0401300004030000c4
:020000040000fa
:0401340004030000c0
:020000040000fa
:0401380004030000bc
:020000040000fa
:04013c0004030000b8
:020000040000fa
:0401400004030000b4
:020000040000fa
:0401440004030000b0
:020000040000fa
:0401480004030000ac
:020000040000fa
:04014c0004030000a8
:020000040000fa
:0401500004030000a4
:020000040000fa
:0401540004030000a0
:020000040000fa
:04015800040300009c
:020000040000fa
:04015c000403000098
:020000040000fa
:040160000403000094
:020000040000fa
:040164000403000090
:020000040000fa
:04016800040300008c
:020000040000fa
:04016c000403000088
:020000040000fa
:040170000403000084
:020000040000fa
:040174000403000080
:020000040000fa
:04017800040300007c
:020000040000fa
:04017c000403000078
:020000040000fa
:040180000403000074
:020000040000fa
:040184000403000070
:020000040000fa
:04018800040300006c
:020000040000fa
:04018c000403000068
:020000040000fa
:040190000403000064
:020000040000fa
:040194000403000060
:020000040000fa
:04019800040300005c
:020000040000fa
:04019c000403000058
:020000040000fa
:0401a0000403000054
:020000040000fa
:0401a4000403000050
:020000040000fa
:0401a800040300004c
:020000040000fa
:0401ac000403000048
:020000040000fa
:0401b0000403000044
:020000040000fa
:0401b4000403000040
:020000040000fa
:0401b800040300003c
:020000040000fa
:0401bc000403000038
:020000040000fa
:0401c0000403000034
:020000040000fa
:0401c4000403000030
:020000040000fa
:0401c800040300002c
:020000040000fa
:0401cc000403000028
:020000040000fa
:0401d0000403000024
:020000040000fa
:0401d4000403000020
:020000040000fa
:0401d800040300001c
:020000040000fa
:0401dc000403000018
:020000040000fa
:0401e0000403000014
:020000040000fa
:0401e4000403000010
:020000040000fa
:0401e800040300000c
:020000040000fa
:0401ec000403000008
:020000040000fa
:0401f0000403000004
:020000040000fa
:0401f4000403000000
:020000040000fa
:0401f80004030000fc
:020000040000fa
:0401fc0004030000f8
:020000040000fa
:100200006f8220000eff27000e0188000000000012
:10021000000020000000e000020032000001200089
:100220002002880014000700f90007000000e00029
:1002300003003a00604c200001002000020037005b
:100240000000200001002000810f7000010032003a
:1002500014000700000020000000e000020032004f
:100260000000020000000000ba04020000000000cc
:100270000040da000000fe004440a90020002000f9
:100280000000e00003003200100020009001880010
:100290004440a800000006008a1f78008b1f7800e9
:1002a00000000600a1028800800478000000eb0036
:1002b0001f003700e284440054a0b4009905ba003e
:1002c000e284440054a0b4009906ba00e2844400d9
:1002d00054a0b4000006eb00476fde00fd07b2003b
:1002e000ae018800636ce10003003a00eaff0700fa
:1002f0000000eb000e003700606ce10008003a00df
:10030000004deb000a05e800020039003420ec0043
:100310000af0a0008b05e900f9ff3e000400370059
:100320006168e100010032000086eb000b0007006d
:1003300019c7ba001905ba000e04e00003003a001c
:100340000a00e000dbff3a0000000600fe07b200f2
:10035000ae0288008a047800f5ff37000cd0a300b5
:10036000e20f4d001c00390089027800354dba00bb
:100370000a05e800020039003420ec000af0a00071
:100380008b05e9000f003200254dba000a05e80090
:10039000020039003420ec000af0a0008b05e900cf
:1003a000080032000c00e0000600320015cdba0053
:1003b0000a05e800020039003420ec000af0a00031
:1003c0008b05e9008984e80054a0b4000b00e0002c
:1003d000e2ff3a00000006009902ba00055d7800cd
:1003e0008b05e900f7ff3200c82ade00055d7800c2
:1003f0008b05e900f3ff32000c00e000f1ff320052
:1004000019ddba00eeff37006203040000000000af
:100410009e040400000000003600f800809fbe002b
:10042000829fbe00849fbe00869fbe000000fa002f
:10043000004080000000e000020032000040800028
:100440000000010050822000104078008040e80049
:1004500050822000014878004082200011c0b30083
:10046000014878008860a9000080fa004f03be00b0
:100470004f02be004f01be004f00be003600f90023
:10048000004006003600f800809fbe00829fbe003c
:10049000849fbe00869fbe000000fa008020a90055
:1004a0000000eb00470107000080fa004f03be0088
:1004b0004f02be004f01be004f00be003600f900e3
:1004c000004006003600f800809fbe00829fbe00fc
:1004d000849fbe00869fbe000000fa003e01070018
:1004e0008040a90010002000360107000080fa00bb
:1004f0004f03be004f02be004f01be004f00be00c2
:100500003600f900004006003600f800809fbe006b
:10051000829fbe00849fbe00869fbe000000fa003e
:100520008060a90020002000260107000080fa005a
:100530004f03be004f02be004f01be004f00be0081
:100540003600f900004006003600f800809fbe002b
:10055000829fbe00849fbe00869fbe000000fa00fe
:100560008080a90030002000160107000080fa00fa
:100570004f03be004f02be004f01be004f00be0041
:100580003600f900004006003600f800809fbe00eb
:10059000829fbe00849fbe00869fbe000000fa00be
:1005a0008600a90070002000060107000080fa0004
:1005b0004f03be004f02be004f01be004f00be0001
:1005c0003600f900004006003600f800809fbe00ab
:1005d000829fbe00849fbe00869fbe000000fa007e
:1005e00085e0a90080002000f60007000080fa00e6
:1005f0004f03be004f02be004f01be004f00be00c1
:100600003600f900004006000040da000000fe005d
:0406100000000500e1
:020000040000fa
:100614000000fa009021ef0030422f00900c880077
:1006240000022800a00c8800004080000000e000c8
:1006340002003a0020362000240007008860a90048
:100644009860a800408220008040eb0001487800b8
:100654000080fa00000006000200fa00000f780093
:100664009e007800910c8800408220008040eb00be
:10067400014878000080fa00000006000000fa003b
:10068400900c80000080fa00000006000200fa00ce
:10069400000f78009e007800810c880040822000c2
:1006a4008040eb00014878000080fa00000006005a
:1006b4000000fa00800c80000080fa0000000600b0
:1006c4000000fa000080fa00000006000200fa00b0
:1006d400000f78009860a9009e007800014088000f
:1006e4009860a8000080fa00000006000000fa00ec
:1006f400408220008040eb00014878009860a80008
:1007040095e1a8000080fa00000006000000fa004d
:1007140095e1a9009860a9000080fa000000060095
:100724000200fa0040822000104f78001e4078003a
:100734000004e00003003200408220008040eb000f
:10074400014878001e4078000080fa00000006008e
:100754000000fa0050822000104078000080fb0066
:100764000080fa00000006000000fa005082200019
:100774008040eb00014878000080fa000000060089
:100784000000fa006426ef007826ef008c26ef00c4
:10079400a026ef00b426ef00c826ef00dc26ef0009
:1007a400f026ef00c06f2c00003388000080eb00bf
:1007b400a0338800e0012700403488000080eb006b
:1007c400e0348800f03f200080358800f01b2300cf
:1007d40020368800f03c2f00c0368800100020002e
:1007e400603788007226ef008626ef009a26ef0015
:1007f400ae26ef00c226ef00d626ef00ea26ef0071
:10080400fe26ef007026ef008426ef009826ef0006
:10081400ac26ef00c026ef00d426ef00e826ef0058
:10082400fc26ef007226ef008626ef009a26ef00e2
:10083400ae26ef00c226ef00d626ef00ea26ef0030
:10084400fe26ef007026ef008426ef009826ef00c6
:10085400ac26ef00c026ef00d426ef00e826ef0018
:10086400fc26ef006626ef007a26ef008e26ef00c6
:10087400a226ef00b626ef00ca26ef00de26ef0020
:10088400f226ef00000c200040338800c0ff2f0048
:10089400e0338800000120008034880000cc200070
:1008a4002035880080212000c0358800003c2000cd
:1008b400003788000080fa00000006000000fa00fb
:1008c40000002300100888000621ef006821ef00d3
:1008d4006a21ef000c21ef000e21ef007821ef00d8
:1008e4007c21ef007e21ef008021ef008221ef00c8
:1008f4008421ef008621ef000001eb008007200037
:10090400a109200013102000804978008149780053
:10091400824978000001eb0060042000710520008a
:1009240003102000804978008149780082497800ca
:100934000080fa00000006000000fa002033800066
:1009440000407800614060000004a2006140600043
:100954000080fb0061006000213380000100a100e1
:1009640001007000203388000080fa0000000600b7
:100974000000fa0026000700e049200053ff0700aa
:080984005aff0700ffff3700d6
:020000040000fa
:10098c0024080000020000008000000000080000a5
:10099c00020000008000000004080000200000009d
:1009ac00800000000208000002000000820000002d
:0809bc00ffff00000000000035
:020000040000fa
:1009c4000200fa00000f78009e00780011408800b1
:1009d400ffff37000000fa00408020008007780005
:1009e400c0812000000188000080fa000000060099
:1009f4000000fa0041058000f0ff2800008060003c
:100a040000c0a000400588000080fa000000060035
:100a14000000fa005aff0700f5ff0700a7ff0700d0
:0c0a2400fbfe07000080fa000000060046
:020000040000fa
:02000004000af0
:04be0000ffffff0041
:020000040000fa
:02000004000af0
:04be2000ffffff0021
:020000040000fa
:02000004000af0
:04be300078ffff0098
:020000040000fa
:02000004000af0
:04be3800b7ffff0051
:020000040000fa
:02000004000af0
:04be40009fffff0061
:020000040000fa
:02000004000af0
:04be4800ffffff00f9
:020000040000fa
:02000004000af0
:04be5000dfffff0011
:020000040000fa
:02000004000af0
:04be58000000ff00e7
:020000040000fa
:02000004000af0
:04be60000000ff00df
:020000040000fa
:02000004000af0
:04be68000000ff00d7
:020000040000fa
:02000004000af0
:04be70000000ff00cf
:020000040000fa
:02000004000af0
:04be7800ffffff00c9
:020000040000fa
:02000004000af0
:04be8000ffffff00c1
:020000040000fa
:020000040100f9
:04300000ffffff00cf
:00000001FF
